{
  "contractName": "LipToken",
  "abi": [
    {
      "inputs": [
        {
          "internalType": "address",
          "name": "marketplaceAddress",
          "type": "address"
        },
        {
          "internalType": "string",
          "name": "_name",
          "type": "string"
        },
        {
          "internalType": "string",
          "name": "_symbol",
          "type": "string"
        }
      ],
      "stateMutability": "nonpayable",
      "type": "constructor"
    },
    {
      "anonymous": false,
      "inputs": [
        {
          "indexed": true,
          "internalType": "address",
          "name": "owner",
          "type": "address"
        },
        {
          "indexed": true,
          "internalType": "address",
          "name": "approved",
          "type": "address"
        },
        {
          "indexed": true,
          "internalType": "uint256",
          "name": "tokenId",
          "type": "uint256"
        }
      ],
      "name": "Approval",
      "type": "event"
    },
    {
      "anonymous": false,
      "inputs": [
        {
          "indexed": true,
          "internalType": "address",
          "name": "owner",
          "type": "address"
        },
        {
          "indexed": true,
          "internalType": "address",
          "name": "operator",
          "type": "address"
        },
        {
          "indexed": false,
          "internalType": "bool",
          "name": "approved",
          "type": "bool"
        }
      ],
      "name": "ApprovalForAll",
      "type": "event"
    },
    {
      "anonymous": false,
      "inputs": [
        {
          "indexed": true,
          "internalType": "address",
          "name": "owner",
          "type": "address"
        },
        {
          "indexed": false,
          "internalType": "uint256",
          "name": "id",
          "type": "uint256"
        },
        {
          "indexed": false,
          "internalType": "uint256",
          "name": "dna",
          "type": "uint256"
        }
      ],
      "name": "NewLip",
      "type": "event"
    },
    {
      "anonymous": false,
      "inputs": [
        {
          "indexed": true,
          "internalType": "address",
          "name": "previousOwner",
          "type": "address"
        },
        {
          "indexed": true,
          "internalType": "address",
          "name": "newOwner",
          "type": "address"
        }
      ],
      "name": "OwnershipTransferred",
      "type": "event"
    },
    {
      "anonymous": false,
      "inputs": [
        {
          "indexed": true,
          "internalType": "address",
          "name": "from",
          "type": "address"
        },
        {
          "indexed": true,
          "internalType": "address",
          "name": "to",
          "type": "address"
        },
        {
          "indexed": true,
          "internalType": "uint256",
          "name": "tokenId",
          "type": "uint256"
        }
      ],
      "name": "Transfer",
      "type": "event"
    },
    {
      "inputs": [
        {
          "internalType": "address",
          "name": "to",
          "type": "address"
        },
        {
          "internalType": "uint256",
          "name": "tokenId",
          "type": "uint256"
        }
      ],
      "name": "approve",
      "outputs": [],
      "stateMutability": "nonpayable",
      "type": "function"
    },
    {
      "inputs": [
        {
          "internalType": "address",
          "name": "owner",
          "type": "address"
        }
      ],
      "name": "balanceOf",
      "outputs": [
        {
          "internalType": "uint256",
          "name": "",
          "type": "uint256"
        }
      ],
      "stateMutability": "view",
      "type": "function",
      "constant": true
    },
    {
      "inputs": [
        {
          "internalType": "uint256",
          "name": "tokenId",
          "type": "uint256"
        }
      ],
      "name": "getApproved",
      "outputs": [
        {
          "internalType": "address",
          "name": "",
          "type": "address"
        }
      ],
      "stateMutability": "view",
      "type": "function",
      "constant": true
    },
    {
      "inputs": [
        {
          "internalType": "address",
          "name": "owner",
          "type": "address"
        },
        {
          "internalType": "address",
          "name": "operator",
          "type": "address"
        }
      ],
      "name": "isApprovedForAll",
      "outputs": [
        {
          "internalType": "bool",
          "name": "",
          "type": "bool"
        }
      ],
      "stateMutability": "view",
      "type": "function",
      "constant": true
    },
    {
      "inputs": [
        {
          "internalType": "uint256",
          "name": "",
          "type": "uint256"
        }
      ],
      "name": "lips",
      "outputs": [
        {
          "internalType": "string",
          "name": "name",
          "type": "string"
        },
        {
          "internalType": "uint256",
          "name": "id",
          "type": "uint256"
        },
        {
          "internalType": "uint256",
          "name": "dna",
          "type": "uint256"
        },
        {
          "internalType": "uint8",
          "name": "level",
          "type": "uint8"
        },
        {
          "internalType": "uint8",
          "name": "rarity",
          "type": "uint8"
        }
      ],
      "stateMutability": "view",
      "type": "function",
      "constant": true
    },
    {
      "inputs": [],
      "name": "name",
      "outputs": [
        {
          "internalType": "string",
          "name": "",
          "type": "string"
        }
      ],
      "stateMutability": "view",
      "type": "function",
      "constant": true
    },
    {
      "inputs": [],
      "name": "owner",
      "outputs": [
        {
          "internalType": "address",
          "name": "",
          "type": "address"
        }
      ],
      "stateMutability": "view",
      "type": "function",
      "constant": true
    },
    {
      "inputs": [
        {
          "internalType": "uint256",
          "name": "tokenId",
          "type": "uint256"
        }
      ],
      "name": "ownerOf",
      "outputs": [
        {
          "internalType": "address",
          "name": "",
          "type": "address"
        }
      ],
      "stateMutability": "view",
      "type": "function",
      "constant": true
    },
    {
      "inputs": [],
      "name": "renounceOwnership",
      "outputs": [],
      "stateMutability": "nonpayable",
      "type": "function"
    },
    {
      "inputs": [
        {
          "internalType": "address",
          "name": "from",
          "type": "address"
        },
        {
          "internalType": "address",
          "name": "to",
          "type": "address"
        },
        {
          "internalType": "uint256",
          "name": "tokenId",
          "type": "uint256"
        }
      ],
      "name": "safeTransferFrom",
      "outputs": [],
      "stateMutability": "nonpayable",
      "type": "function"
    },
    {
      "inputs": [
        {
          "internalType": "address",
          "name": "from",
          "type": "address"
        },
        {
          "internalType": "address",
          "name": "to",
          "type": "address"
        },
        {
          "internalType": "uint256",
          "name": "tokenId",
          "type": "uint256"
        },
        {
          "internalType": "bytes",
          "name": "_data",
          "type": "bytes"
        }
      ],
      "name": "safeTransferFrom",
      "outputs": [],
      "stateMutability": "nonpayable",
      "type": "function"
    },
    {
      "inputs": [
        {
          "internalType": "address",
          "name": "operator",
          "type": "address"
        },
        {
          "internalType": "bool",
          "name": "approved",
          "type": "bool"
        }
      ],
      "name": "setApprovalForAll",
      "outputs": [],
      "stateMutability": "nonpayable",
      "type": "function"
    },
    {
      "inputs": [
        {
          "internalType": "bytes4",
          "name": "interfaceId",
          "type": "bytes4"
        }
      ],
      "name": "supportsInterface",
      "outputs": [
        {
          "internalType": "bool",
          "name": "",
          "type": "bool"
        }
      ],
      "stateMutability": "view",
      "type": "function",
      "constant": true
    },
    {
      "inputs": [],
      "name": "symbol",
      "outputs": [
        {
          "internalType": "string",
          "name": "",
          "type": "string"
        }
      ],
      "stateMutability": "view",
      "type": "function",
      "constant": true
    },
    {
      "inputs": [
        {
          "internalType": "uint256",
          "name": "tokenId",
          "type": "uint256"
        }
      ],
      "name": "tokenURI",
      "outputs": [
        {
          "internalType": "string",
          "name": "",
          "type": "string"
        }
      ],
      "stateMutability": "view",
      "type": "function",
      "constant": true
    },
    {
      "inputs": [
        {
          "internalType": "address",
          "name": "from",
          "type": "address"
        },
        {
          "internalType": "address",
          "name": "to",
          "type": "address"
        },
        {
          "internalType": "uint256",
          "name": "tokenId",
          "type": "uint256"
        }
      ],
      "name": "transferFrom",
      "outputs": [],
      "stateMutability": "nonpayable",
      "type": "function"
    },
    {
      "inputs": [
        {
          "internalType": "address",
          "name": "newOwner",
          "type": "address"
        }
      ],
      "name": "transferOwnership",
      "outputs": [],
      "stateMutability": "nonpayable",
      "type": "function"
    },
    {
      "inputs": [
        {
          "internalType": "uint256",
          "name": "_fee",
          "type": "uint256"
        }
      ],
      "name": "updateFee",
      "outputs": [],
      "stateMutability": "nonpayable",
      "type": "function"
    },
    {
      "inputs": [],
      "name": "withdraw",
      "outputs": [],
      "stateMutability": "payable",
      "type": "function",
      "payable": true
    },
    {
      "inputs": [
        {
          "internalType": "string",
          "name": "_name",
          "type": "string"
        }
      ],
      "name": "createRandomLip",
      "outputs": [],
      "stateMutability": "payable",
      "type": "function",
      "payable": true
    },
    {
      "inputs": [],
      "name": "getLips",
      "outputs": [
        {
          "components": [
            {
              "internalType": "string",
              "name": "name",
              "type": "string"
            },
            {
              "internalType": "uint256",
              "name": "id",
              "type": "uint256"
            },
            {
              "internalType": "uint256",
              "name": "dna",
              "type": "uint256"
            },
            {
              "internalType": "uint8",
              "name": "level",
              "type": "uint8"
            },
            {
              "internalType": "uint8",
              "name": "rarity",
              "type": "uint8"
            }
          ],
          "internalType": "struct LipToken.Lip[]",
          "name": "",
          "type": "tuple[]"
        }
      ],
      "stateMutability": "view",
      "type": "function",
      "constant": true
    },
    {
      "inputs": [
        {
          "internalType": "address",
          "name": "_owner",
          "type": "address"
        }
      ],
      "name": "getOwnerLips",
      "outputs": [
        {
          "components": [
            {
              "internalType": "string",
              "name": "name",
              "type": "string"
            },
            {
              "internalType": "uint256",
              "name": "id",
              "type": "uint256"
            },
            {
              "internalType": "uint256",
              "name": "dna",
              "type": "uint256"
            },
            {
              "internalType": "uint8",
              "name": "level",
              "type": "uint8"
            },
            {
              "internalType": "uint8",
              "name": "rarity",
              "type": "uint8"
            }
          ],
          "internalType": "struct LipToken.Lip[]",
          "name": "",
          "type": "tuple[]"
        }
      ],
      "stateMutability": "view",
      "type": "function",
      "constant": true
    },
    {
      "inputs": [
        {
          "internalType": "uint256",
          "name": "_lipId",
          "type": "uint256"
        }
      ],
      "name": "levelUp",
      "outputs": [],
      "stateMutability": "nonpayable",
      "type": "function"
    }
  ],
  "bytecode": "0x6080604052662386f26fc100006009553480156200001c57600080fd5b50604051620024d6380380620024d68339810160408190526200003f916200025a565b8151829082906200005890600090602085019062000109565b5080516200006e90600190602084019062000109565b5050506200008b62000085620000b360201b60201c565b620000b7565b5050600780546001600160a01b0319166001600160a01b039290921691909117905562000333565b3390565b600680546001600160a01b038381166001600160a01b0319831681179093556040519116919082907f8be0079c531659141344cd1fd0a4f28419497f9722a3daafe3b4186f6b6457e090600090a35050565b8280546200011790620002e0565b90600052602060002090601f0160209004810192826200013b576000855562000186565b82601f106200015657805160ff191683800117855562000186565b8280016001018555821562000186579182015b828111156200018657825182559160200191906001019062000169565b506200019492915062000198565b5090565b5b8082111562000194576000815560010162000199565b600082601f830112620001c0578081fd5b81516001600160401b0380821115620001dd57620001dd6200031d565b6040516020601f8401601f19168201810183811183821017156200020557620002056200031d565b60405283825285840181018710156200021c578485fd5b8492505b838310156200023f578583018101518284018201529182019162000220565b838311156200025057848185840101525b5095945050505050565b6000806000606084860312156200026f578283fd5b83516001600160a01b038116811462000286578384fd5b60208501519093506001600160401b0380821115620002a3578384fd5b620002b187838801620001af565b93506040860151915080821115620002c7578283fd5b50620002d686828701620001af565b9150509250925092565b600281046001821680620002f557607f821691505b602082108114156200031757634e487b7160e01b600052602260045260246000fd5b50919050565b634e487b7160e01b600052604160045260246000fd5b61219380620003436000396000f3fe6080604052600436106101405760003560e01c806370a08231116100b657806395d89b411161006f57806395d89b4114610371578063a22cb46514610386578063b88d4fde146103a6578063c87b56dd146103c6578063e985e9c5146103e6578063f2fde38b1461040657610140565b806370a08231146102b8578063715018a6146102e557806383b5daf7146102fa5780638c0b9c541461031c5780638da5cb5b1461033c5780639012c4a81461035157610140565b806323b872dd1161010857806323b872dd1461020c5780633ccfd60b1461022c57806342842e0e146102345780635ec163db146102545780636352211e14610285578063698d640c146102a557610140565b806301ffc9a71461014557806306fdde031461017b578063081812fc1461019d578063095ea7b3146101ca5780630ce90ec2146101ec575b600080fd5b34801561015157600080fd5b5061016561016036600461193a565b610426565b6040516101729190611b37565b60405180910390f35b34801561018757600080fd5b5061019061046e565b6040516101729190611b42565b3480156101a957600080fd5b506101bd6101b83660046119b8565b610500565b6040516101729190611a4b565b3480156101d657600080fd5b506101ea6101e5366004611911565b61054c565b005b3480156101f857600080fd5b506101ea6102073660046119b8565b6105e4565b34801561021857600080fd5b506101ea610227366004611823565b610669565b6101ea6106a1565b34801561024057600080fd5b506101ea61024f366004611823565b610726565b34801561026057600080fd5b5061027461026f3660046119b8565b610741565b604051610172959493929190611b55565b34801561029157600080fd5b506101bd6102a03660046119b8565b610817565b6101ea6102b3366004611972565b61084c565b3480156102c457600080fd5b506102d86102d33660046117d7565b610867565b6040516101729190611ff5565b3480156102f157600080fd5b506101ea6108ab565b34801561030657600080fd5b5061030f6108f6565b6040516101729190611a9c565b34801561032857600080fd5b5061030f6103373660046117d7565b610a1c565b34801561034857600080fd5b506101bd610c0e565b34801561035d57600080fd5b506101ea61036c3660046119b8565b610c1d565b34801561037d57600080fd5b50610190610c61565b34801561039257600080fd5b506101ea6103a13660046118d7565b610c70565b3480156103b257600080fd5b506101ea6103c136600461185e565b610c82565b3480156103d257600080fd5b506101906103e13660046119b8565b610cc1565b3480156103f257600080fd5b506101656104013660046117f1565b610d44565b34801561041257600080fd5b506101ea6104213660046117d7565b610d72565b60006001600160e01b031982166380ac58cd60e01b148061045757506001600160e01b03198216635b5e139f60e01b145b80610466575061046682610de0565b90505b919050565b60606000805461047d9061207b565b80601f01602080910402602001604051908101604052809291908181526020018280546104a99061207b565b80156104f65780601f106104cb576101008083540402835291602001916104f6565b820191906000526020600020905b8154815290600101906020018083116104d957829003601f168201915b5050505050905090565b600061050b82610df9565b6105305760405162461bcd60e51b815260040161052790611e4a565b60405180910390fd5b506000908152600460205260409020546001600160a01b031690565b600061055782610817565b9050806001600160a01b0316836001600160a01b0316141561058b5760405162461bcd60e51b815260040161052790611f63565b806001600160a01b031661059d610e16565b6001600160a01b031614806105b957506105b981610401610e16565b6105d55760405162461bcd60e51b815260040161052790611d25565b6105df8383610e1a565b505050565b336105ee82610817565b6001600160a01b03161461060157600080fd5b6000600a828154811061062457634e487b7160e01b600052603260045260246000fd5b6000918252602082206003600490920201908101805491935060ff9091169161064c836120d1565b91906101000a81548160ff021916908360ff160217905550505050565b61067a610674610e16565b82610e88565b6106965760405162461bcd60e51b815260040161052790611fa4565b6105df838383610f0d565b6106a9610e16565b6001600160a01b03166106ba610c0e565b6001600160a01b0316146106e05760405162461bcd60e51b815260040161052790611e96565b60006106ea610c0e565b6040519091506001600160a01b038216904780156108fc02916000818181858888f19350505050158015610722573d6000803e3d6000fd5b5050565b6105df83838360405180602001604052806000815250610c82565b600a818154811061075157600080fd5b90600052602060002090600402016000915090508060000180546107749061207b565b80601f01602080910402602001604051908101604052809291908181526020018280546107a09061207b565b80156107ed5780601f106107c2576101008083540402835291602001916107ed565b820191906000526020600020905b8154815290600101906020018083116107d057829003601f168201915b50505050600183015460028401546003909401549293909290915060ff8082169161010090041685565b6000818152600260205260408120546001600160a01b0316806104665760405162461bcd60e51b815260040161052790611dcc565b60095434101561085b57600080fd5b6108648161103a565b50565b60006001600160a01b03821661088f5760405162461bcd60e51b815260040161052790611d82565b506001600160a01b031660009081526003602052604090205490565b6108b3610e16565b6001600160a01b03166108c4610c0e565b6001600160a01b0316146108ea5760405162461bcd60e51b815260040161052790611e96565b6108f460006111a6565b565b6060600a805480602002602001604051908101604052809291908181526020016000905b82821015610a1357838290600052602060002090600402016040518060a001604052908160008201805461094d9061207b565b80601f01602080910402602001604051908101604052809291908181526020018280546109799061207b565b80156109c65780601f1061099b576101008083540402835291602001916109c6565b820191906000526020600020905b8154815290600101906020018083116109a957829003601f168201915b50505091835250506001828101546020808401919091526002840154604084015260039093015460ff8082166060850152610100909104166080909201919091529183529201910161091a565b50505050905090565b60606000610a2983610867565b67ffffffffffffffff811115610a4f57634e487b7160e01b600052604160045260246000fd5b604051908082528060200260200182016040528015610a8857816020015b610a75611682565b815260200190600190039081610a6d5790505b5090506000805b600a54811015610c0557846001600160a01b0316610aac82610817565b6001600160a01b03161415610bf357600a8181548110610adc57634e487b7160e01b600052603260045260246000fd5b90600052602060002090600402016040518060a0016040529081600082018054610b059061207b565b80601f0160208091040260200160405190810160405280929190818152602001828054610b319061207b565b8015610b7e5780601f10610b5357610100808354040283529160200191610b7e565b820191906000526020600020905b815481529060010190602001808311610b6157829003601f168201915b5050509183525050600182015460208201526002820154604082015260039091015460ff8082166060840152610100909104166080909101528351849084908110610bd957634e487b7160e01b600052603260045260246000fd5b60200260200101819052508180610bef906120b6565b9250505b80610bfd816120b6565b915050610a8f565b50909392505050565b6006546001600160a01b031690565b610c25610e16565b6001600160a01b0316610c36610c0e565b6001600160a01b031614610c5c5760405162461bcd60e51b815260040161052790611e96565b600955565b60606001805461047d9061207b565b610722610c7b610e16565b83836111f8565b610c93610c8d610e16565b83610e88565b610caf5760405162461bcd60e51b815260040161052790611fa4565b610cbb8484848461129b565b50505050565b6060610ccc82610df9565b610ce85760405162461bcd60e51b815260040161052790611f14565b6000610cf26112ce565b90506000815111610d125760405180602001604052806000815250610d3d565b80610d1c846112e0565b604051602001610d2d9291906119fc565b6040516020818303038152906040525b9392505050565b6001600160a01b03918216600090815260056020908152604080832093909416825291909152205460ff1690565b610d7a610e16565b6001600160a01b0316610d8b610c0e565b6001600160a01b031614610db15760405162461bcd60e51b815260040161052790611e96565b6001600160a01b038116610dd75760405162461bcd60e51b815260040161052790611be1565b610864816111a6565b6001600160e01b031981166301ffc9a760e01b14919050565b6000908152600260205260409020546001600160a01b0316151590565b3390565b600081815260046020526040902080546001600160a01b0319166001600160a01b0384169081179091558190610e4f82610817565b6001600160a01b03167f8c5be1e5ebec7d5bd14f71427d1e84f3dd0314c0f7b2291e5b200ac8c7c3b92560405160405180910390a45050565b6000610e9382610df9565b610eaf5760405162461bcd60e51b815260040161052790611cd9565b6000610eba83610817565b9050806001600160a01b0316846001600160a01b03161480610ef55750836001600160a01b0316610eea84610500565b6001600160a01b0316145b80610f055750610f058185610d44565b949350505050565b826001600160a01b0316610f2082610817565b6001600160a01b031614610f465760405162461bcd60e51b815260040161052790611ecb565b6001600160a01b038216610f6c5760405162461bcd60e51b815260040161052790611c5e565b610f778383836105df565b610f82600082610e1a565b6001600160a01b0383166000908152600360205260408120805460019290610fab908490612038565b90915550506001600160a01b0382166000908152600360205260408120805460019290610fd990849061200c565b909155505060008181526002602052604080822080546001600160a01b0319166001600160a01b0386811691821790925591518493918716917fddf252ad1be2c89b69c2b068fc378daa952ba7f163c4a11628f55a4df523b3ef91a4505050565b600061104660646113fb565b9050600061105a662386f26fc100006113fb565b6040805160a08101825285815260085460208083019190915291810183905260016060820181905260ff86166080830152600a80549182018155600052815180519495509193849360049092027fc65a7bb8d6351c1cf70c95a316cc6a92839c986682d98bc35f958f4883f9d2a801926110d89284929101906116b7565b50602082015160018201556040820151600282015560608201516003909101805460809093015160ff9081166101000261ff00199190931660ff19909416939093179290921617905560085461112f903390611435565b336001600160a01b03167f24d2d558f98bdd9d21339e119fc0b03e213c7d05affd838ac2ee136d90e3bbeb6008548460405161116c929190611ffe565b60405180910390a260075461118b906001600160a01b03166001610c70565b6008805490600061119b836120b6565b919050555050505050565b600680546001600160a01b038381166001600160a01b0319831681179093556040519116919082907f8be0079c531659141344cd1fd0a4f28419497f9722a3daafe3b4186f6b6457e090600090a35050565b816001600160a01b0316836001600160a01b0316141561122a5760405162461bcd60e51b815260040161052790611ca2565b6001600160a01b0383811660008181526005602090815260408083209487168084529490915290819020805460ff1916851515179055517f17307eab39ab6107e8899845ad3d59bd9653f200f220920489ca2b5937696c319061128e908590611b37565b60405180910390a3505050565b6112a6848484610f0d565b6112b28484848461144f565b610cbb5760405162461bcd60e51b815260040161052790611b8f565b60408051602081019091526000815290565b60608161130557506040805180820190915260018152600360fc1b6020820152610469565b8160005b811561132f5780611319816120b6565b91506113289050600a83612024565b9150611309565b60008167ffffffffffffffff81111561135857634e487b7160e01b600052604160045260246000fd5b6040519080825280601f01601f191660200182016040528015611382576020820181803683370190505b5090505b8415610f0557611397600183612038565b91506113a4600a866120f1565b6113af90603061200c565b60f81b8183815181106113d257634e487b7160e01b600052603260045260246000fd5b60200101906001600160f81b031916908160001a9053506113f4600a86612024565b9450611386565b6000804233604051602001611411929190611a2b565b60408051601f1981840301815291905280516020909101209050610d3d83826120f1565b61072282826040518060200160405280600081525061156a565b6000611463846001600160a01b031661159d565b1561155f57836001600160a01b031663150b7a0261147f610e16565b8786866040518563ffffffff1660e01b81526004016114a19493929190611a5f565b602060405180830381600087803b1580156114bb57600080fd5b505af19250505080156114eb575060408051601f3d908101601f191682019092526114e891810190611956565b60015b611545573d808015611519576040519150601f19603f3d011682016040523d82523d6000602084013e61151e565b606091505b50805161153d5760405162461bcd60e51b815260040161052790611b8f565b805181602001fd5b6001600160e01b031916630a85bd0160e11b149050610f05565b506001949350505050565b61157483836115a3565b611581600084848461144f565b6105df5760405162461bcd60e51b815260040161052790611b8f565b3b151590565b6001600160a01b0382166115c95760405162461bcd60e51b815260040161052790611e15565b6115d281610df9565b156115ef5760405162461bcd60e51b815260040161052790611c27565b6115fb600083836105df565b6001600160a01b038216600090815260036020526040812080546001929061162490849061200c565b909155505060008181526002602052604080822080546001600160a01b0319166001600160a01b03861690811790915590518392907fddf252ad1be2c89b69c2b068fc378daa952ba7f163c4a11628f55a4df523b3ef908290a45050565b6040518060a00160405280606081526020016000815260200160008152602001600060ff168152602001600060ff1681525090565b8280546116c39061207b565b90600052602060002090601f0160209004810192826116e5576000855561172b565b82601f106116fe57805160ff191683800117855561172b565b8280016001018555821561172b579182015b8281111561172b578251825591602001919060010190611710565b5061173792915061173b565b5090565b5b80821115611737576000815560010161173c565b600067ffffffffffffffff8084111561176b5761176b612131565b604051601f8501601f19168101602001828111828210171561178f5761178f612131565b6040528481529150818385018610156117a757600080fd5b8484602083013760006020868301015250509392505050565b80356001600160a01b038116811461046957600080fd5b6000602082840312156117e8578081fd5b610d3d826117c0565b60008060408385031215611803578081fd5b61180c836117c0565b915061181a602084016117c0565b90509250929050565b600080600060608486031215611837578081fd5b611840846117c0565b925061184e602085016117c0565b9150604084013590509250925092565b60008060008060808587031215611873578081fd5b61187c856117c0565b935061188a602086016117c0565b925060408501359150606085013567ffffffffffffffff8111156118ac578182fd5b8501601f810187136118bc578182fd5b6118cb87823560208401611750565b91505092959194509250565b600080604083850312156118e9578182fd5b6118f2836117c0565b915060208301358015158114611906578182fd5b809150509250929050565b60008060408385031215611923578182fd5b61192c836117c0565b946020939093013593505050565b60006020828403121561194b578081fd5b8135610d3d81612147565b600060208284031215611967578081fd5b8151610d3d81612147565b600060208284031215611983578081fd5b813567ffffffffffffffff811115611999578182fd5b8201601f810184136119a9578182fd5b610f0584823560208401611750565b6000602082840312156119c9578081fd5b5035919050565b600081518084526119e881602086016020860161204f565b601f01601f19169290920160200192915050565b60008351611a0e81846020880161204f565b835190830190611a2281836020880161204f565b01949350505050565b91825260601b6bffffffffffffffffffffffff1916602082015260340190565b6001600160a01b0391909116815260200190565b6001600160a01b0385811682528416602082015260408101839052608060608201819052600090611a92908301846119d0565b9695505050505050565b60208082528251828201819052600091906040908185019080840286018301878501865b83811015611b2957603f19898403018552815160a08151818652611ae6828701826119d0565b838b0151878c0152898401518a88015260608085015160ff9081169189019190915260809485015116939096019290925250509386019390860190600101611ac0565b509098975050505050505050565b901515815260200190565b600060208252610d3d60208301846119d0565b600060a08252611b6860a08301886119d0565b602083019690965250604081019390935260ff918216606084015216608090910152919050565b60208082526032908201527f4552433732313a207472616e7366657220746f206e6f6e20455243373231526560408201527131b2b4bb32b91034b6b83632b6b2b73a32b960711b606082015260800190565b60208082526026908201527f4f776e61626c653a206e6577206f776e657220697320746865207a65726f206160408201526564647265737360d01b606082015260800190565b6020808252601c908201527f4552433732313a20746f6b656e20616c7265616479206d696e74656400000000604082015260600190565b60208082526024908201527f4552433732313a207472616e7366657220746f20746865207a65726f206164646040820152637265737360e01b606082015260800190565b60208082526019908201527f4552433732313a20617070726f766520746f2063616c6c657200000000000000604082015260600190565b6020808252602c908201527f4552433732313a206f70657261746f7220717565727920666f72206e6f6e657860408201526b34b9ba32b73a103a37b5b2b760a11b606082015260800190565b60208082526038908201527f4552433732313a20617070726f76652063616c6c6572206973206e6f74206f7760408201527f6e6572206e6f7220617070726f76656420666f7220616c6c0000000000000000606082015260800190565b6020808252602a908201527f4552433732313a2062616c616e636520717565727920666f7220746865207a65604082015269726f206164647265737360b01b606082015260800190565b60208082526029908201527f4552433732313a206f776e657220717565727920666f72206e6f6e657869737460408201526832b73a103a37b5b2b760b91b606082015260800190565b6020808252818101527f4552433732313a206d696e7420746f20746865207a65726f2061646472657373604082015260600190565b6020808252602c908201527f4552433732313a20617070726f76656420717565727920666f72206e6f6e657860408201526b34b9ba32b73a103a37b5b2b760a11b606082015260800190565b6020808252818101527f4f776e61626c653a2063616c6c6572206973206e6f7420746865206f776e6572604082015260600190565b60208082526029908201527f4552433732313a207472616e73666572206f6620746f6b656e2074686174206960408201526839903737ba1037bbb760b91b606082015260800190565b6020808252602f908201527f4552433732314d657461646174613a2055524920717565727920666f72206e6f60408201526e3732bc34b9ba32b73a103a37b5b2b760891b606082015260800190565b60208082526021908201527f4552433732313a20617070726f76616c20746f2063757272656e74206f776e656040820152603960f91b606082015260800190565b60208082526031908201527f4552433732313a207472616e736665722063616c6c6572206973206e6f74206f6040820152701ddb995c881b9bdc88185c1c1c9bdd9959607a1b606082015260800190565b90815260200190565b918252602082015260400190565b6000821982111561201f5761201f612105565b500190565b6000826120335761203361211b565b500490565b60008282101561204a5761204a612105565b500390565b60005b8381101561206a578181015183820152602001612052565b83811115610cbb5750506000910152565b60028104600182168061208f57607f821691505b602082108114156120b057634e487b7160e01b600052602260045260246000fd5b50919050565b60006000198214156120ca576120ca612105565b5060010190565b600060ff821660ff8114156120e8576120e8612105565b60010192915050565b6000826121005761210061211b565b500690565b634e487b7160e01b600052601160045260246000fd5b634e487b7160e01b600052601260045260246000fd5b634e487b7160e01b600052604160045260246000fd5b6001600160e01b03198116811461086457600080fdfea2646970667358221220e7dfa5b5b66402229071e736bc7e9929aa70c4deecf5f21fbf95fea05651669264736f6c63430008000033",
  "immutableReferences": {},
  "source": "// SPDX-License-Identifier: MIT\n\npragma solidity ^0.8.0;\n\nimport \"@openzeppelin/contracts/token/ERC721/ERC721.sol\";\nimport \"@openzeppelin/contracts/access/Ownable.sol\";\n\ncontract LipToken is ERC721, Ownable {\n    address contractAddress;\n\n    constructor(\n        address marketplaceAddress,\n        string memory _name,\n        string memory _symbol\n    ) ERC721(_name, _symbol) {\n        contractAddress = marketplaceAddress;\n    }\n\n    uint256 COUNTER;\n\n    uint256 fee = 0.01 ether;\n\n    struct Lip {\n        string name;\n        uint256 id;\n        uint256 dna;\n        uint8 level;\n        uint8 rarity;\n    }\n\n    Lip[] public lips;\n\n    event NewLip(address indexed owner, uint256 id, uint256 dna);\n\n    // Helpers\n    function _createRandomNum(uint256 _mod) internal view returns (uint256) {\n        uint256 randomNum = uint256(\n            keccak256(abi.encodePacked(block.timestamp, msg.sender))\n        );\n        return randomNum % _mod;\n    }\n\n    function updateFee(uint256 _fee) external onlyOwner {\n        fee = _fee;\n    }\n\n    function withdraw() external payable onlyOwner {\n        address payable _owner = payable(owner());\n        _owner.transfer(address(this).balance);\n    }\n\n    // Creation\n    function _createLip(string memory _name) internal {\n        uint8 randRarity = uint8(_createRandomNum(100));\n        uint256 randDna = _createRandomNum(10**16);\n        Lip memory newLip = Lip(_name, COUNTER, randDna, 1, randRarity);\n        lips.push(newLip);\n        _safeMint(msg.sender, COUNTER);\n        emit NewLip(msg.sender, COUNTER, randDna);\n        setApprovalForAll(contractAddress, true);\n        COUNTER++;\n    }\n\n    function createRandomLip(string memory _name) public payable {\n        require(msg.value >= fee);\n        _createLip(_name);\n    }\n\n    // Getters\n    function getLips() public view returns (Lip[] memory) {\n        return lips;\n    }\n\n    function getOwnerLips(address _owner) public view returns (Lip[] memory) {\n        Lip[] memory result = new Lip[](balanceOf(_owner));\n        uint256 counter = 0;\n        for (uint256 i = 0; i < lips.length; i++) {\n            if (ownerOf(i) == _owner) {\n                result[counter] = lips[i];\n                counter++;\n            }\n        }\n        return result;\n    }\n\n    // Actions\n    function levelUp(uint256 _lipId) public {\n        require(ownerOf(_lipId) == msg.sender);\n        Lip storage lip = lips[_lipId];\n        lip.level++;\n    }\n}\n",
  "sourcePath": "/Volumes/MACLIFE - Data/coin/nft_game/contracts/LipToken.sol",
  "compiler": {
    "name": "solc",
    "version": "0.8.0+commit.c7dfd78e.Emscripten.clang"
  },
  "schemaVersion": "3.4.4",
  "updatedAt": "2022-01-22T08:12:03.497Z",
  "networkType": "ethereum",
  "devdoc": {
    "kind": "dev",
    "methods": {
      "approve(address,uint256)": {
        "details": "See {IERC721-approve}."
      },
      "balanceOf(address)": {
        "details": "See {IERC721-balanceOf}."
      },
      "getApproved(uint256)": {
        "details": "See {IERC721-getApproved}."
      },
      "isApprovedForAll(address,address)": {
        "details": "See {IERC721-isApprovedForAll}."
      },
      "name()": {
        "details": "See {IERC721Metadata-name}."
      },
      "owner()": {
        "details": "Returns the address of the current owner."
      },
      "ownerOf(uint256)": {
        "details": "See {IERC721-ownerOf}."
      },
      "renounceOwnership()": {
        "details": "Leaves the contract without owner. It will not be possible to call `onlyOwner` functions anymore. Can only be called by the current owner. NOTE: Renouncing ownership will leave the contract without an owner, thereby removing any functionality that is only available to the owner."
      },
      "safeTransferFrom(address,address,uint256)": {
        "details": "See {IERC721-safeTransferFrom}."
      },
      "safeTransferFrom(address,address,uint256,bytes)": {
        "details": "See {IERC721-safeTransferFrom}."
      },
      "setApprovalForAll(address,bool)": {
        "details": "See {IERC721-setApprovalForAll}."
      },
      "supportsInterface(bytes4)": {
        "details": "See {IERC165-supportsInterface}."
      },
      "symbol()": {
        "details": "See {IERC721Metadata-symbol}."
      },
      "tokenURI(uint256)": {
        "details": "See {IERC721Metadata-tokenURI}."
      },
      "transferFrom(address,address,uint256)": {
        "details": "See {IERC721-transferFrom}."
      },
      "transferOwnership(address)": {
        "details": "Transfers ownership of the contract to a new account (`newOwner`). Can only be called by the current owner."
      }
    },
    "version": 1
  },
  "userdoc": {
    "kind": "user",
    "methods": {},
    "version": 1
  }
}