{
  "contractName": "Market",
  "abi": [
    {
      "inputs": [],
      "stateMutability": "nonpayable",
      "type": "constructor"
    },
    {
      "anonymous": false,
      "inputs": [
        {
          "indexed": true,
          "internalType": "uint256",
          "name": "itemId",
          "type": "uint256"
        },
        {
          "indexed": true,
          "internalType": "address",
          "name": "nftContract",
          "type": "address"
        },
        {
          "indexed": true,
          "internalType": "uint256",
          "name": "tokenId",
          "type": "uint256"
        },
        {
          "indexed": false,
          "internalType": "address",
          "name": "seller",
          "type": "address"
        },
        {
          "indexed": false,
          "internalType": "address",
          "name": "owner",
          "type": "address"
        },
        {
          "indexed": false,
          "internalType": "uint256",
          "name": "price",
          "type": "uint256"
        },
        {
          "indexed": false,
          "internalType": "bool",
          "name": "sold",
          "type": "bool"
        }
      ],
      "name": "MarketItemCreated",
      "type": "event"
    },
    {
      "anonymous": false,
      "inputs": [
        {
          "indexed": true,
          "internalType": "uint256",
          "name": "itemId",
          "type": "uint256"
        },
        {
          "indexed": false,
          "internalType": "address",
          "name": "owner",
          "type": "address"
        }
      ],
      "name": "MarketItemSold",
      "type": "event"
    },
    {
      "inputs": [
        {
          "internalType": "uint256",
          "name": "",
          "type": "uint256"
        }
      ],
      "name": "markets",
      "outputs": [
        {
          "internalType": "uint256",
          "name": "itemId",
          "type": "uint256"
        },
        {
          "internalType": "address",
          "name": "nftContract",
          "type": "address"
        },
        {
          "internalType": "uint256",
          "name": "tokenId",
          "type": "uint256"
        },
        {
          "internalType": "address payable",
          "name": "seller",
          "type": "address"
        },
        {
          "internalType": "address payable",
          "name": "owner",
          "type": "address"
        },
        {
          "internalType": "uint256",
          "name": "price",
          "type": "uint256"
        },
        {
          "internalType": "bool",
          "name": "sold",
          "type": "bool"
        }
      ],
      "stateMutability": "view",
      "type": "function",
      "constant": true
    },
    {
      "inputs": [],
      "name": "owner",
      "outputs": [
        {
          "internalType": "address",
          "name": "",
          "type": "address"
        }
      ],
      "stateMutability": "view",
      "type": "function",
      "constant": true
    },
    {
      "inputs": [
        {
          "internalType": "address",
          "name": "nftContract",
          "type": "address"
        },
        {
          "internalType": "uint256",
          "name": "tokenId",
          "type": "uint256"
        },
        {
          "internalType": "uint256",
          "name": "price",
          "type": "uint256"
        }
      ],
      "name": "createMarketItem",
      "outputs": [],
      "stateMutability": "payable",
      "type": "function",
      "payable": true
    },
    {
      "inputs": [
        {
          "internalType": "address",
          "name": "nftContract",
          "type": "address"
        },
        {
          "internalType": "uint256",
          "name": "itemId",
          "type": "uint256"
        }
      ],
      "name": "createMarketSale",
      "outputs": [],
      "stateMutability": "payable",
      "type": "function",
      "payable": true
    },
    {
      "inputs": [],
      "name": "fetchMarketItems",
      "outputs": [
        {
          "components": [
            {
              "internalType": "uint256",
              "name": "itemId",
              "type": "uint256"
            },
            {
              "internalType": "address",
              "name": "nftContract",
              "type": "address"
            },
            {
              "internalType": "uint256",
              "name": "tokenId",
              "type": "uint256"
            },
            {
              "internalType": "address payable",
              "name": "seller",
              "type": "address"
            },
            {
              "internalType": "address payable",
              "name": "owner",
              "type": "address"
            },
            {
              "internalType": "uint256",
              "name": "price",
              "type": "uint256"
            },
            {
              "internalType": "bool",
              "name": "sold",
              "type": "bool"
            }
          ],
          "internalType": "struct Market.MarketItem[]",
          "name": "",
          "type": "tuple[]"
        }
      ],
      "stateMutability": "view",
      "type": "function",
      "constant": true
    }
  ],
  "bytecode": "0x608060405234801561001057600080fd5b506001600055600380546001600160a01b03191633179055610c8f806100376000396000f3fe60806040526004361061004a5760003560e01c80630f08efe01461004f57806358eb2df51461007a5780638da5cb5b1461008f578063b1283e77146100b1578063c23b139e146100e4575b600080fd5b34801561005b57600080fd5b506100646100f7565b6040516100719190610a22565b60405180910390f35b61008d610088366004610977565b6102a8565b005b34801561009b57600080fd5b506100a46106bb565b60405161007191906109c1565b3480156100bd57600080fd5b506100d16100cc3660046109a9565b6106ca565b6040516100719796959493929190610bb9565b61008d6100f236600461094e565b610729565b6060600061010560016108ea565b9050600061011360026108ea565b61011d60016108ea565b6101279190610c11565b90506000808267ffffffffffffffff81111561015357634e487b7160e01b600052604160045260246000fd5b60405190808252806020026020018201604052801561018c57816020015b6101796108fb565b8152602001906001900390816101715790505b50905060005b8481101561029f5760006005816101aa846001610bf9565b81526020810191909152604001600020600401546001600160a01b0316141561028d5760006101da826001610bf9565b600081815260056020818152604092839020835160e0810185528154815260018201546001600160a01b0390811693820193909352600282015494810194909452600381015482166060850152600481015490911660808401529081015460a0830152600681015460ff16151560c083015285519293509185908790811061027257634e487b7160e01b600052603260045260246000fd5b6020908102919091010152610288600186610bf9565b945050505b8061029781610c28565b915050610192565b50935050505090565b600260005414156102d45760405162461bcd60e51b81526004016102cb90610b4b565b60405180910390fd5b6002600055806102f65760405162461bcd60e51b81526004016102cb90610b82565b61030060016108f2565b600061030c60016108ea565b905060006040518060e00160405280838152602001866001600160a01b03168152602001858152602001336001600160a01b0316815260200160006001600160a01b0316815260200184815260200160001515815250600560008481526020019081526020016000206000820151816000015560208201518160010160006101000a8154816001600160a01b0302191690836001600160a01b031602179055506040820151816002015560608201518160030160006101000a8154816001600160a01b0302191690836001600160a01b0316021790555060808201518160040160006101000a8154816001600160a01b0302191690836001600160a01b0316021790555060a0820151816005015560c08201518160060160006101000a81548160ff02191690831515021790555090506040518060e0016040529081600082015481526020016001820160009054906101000a90046001600160a01b03166001600160a01b03166001600160a01b03168152602001600282015481526020016003820160009054906101000a90046001600160a01b03166001600160a01b03166001600160a01b031681526020016004820160009054906101000a90046001600160a01b03166001600160a01b03166001600160a01b03168152602001600582015481526020016006820160009054906101000a900460ff161515151581525050905060048190806001815401808255809150506001900390600052602060002090600702016000909190919091506000820151816000015560208201518160010160006101000a8154816001600160a01b0302191690836001600160a01b031602179055506040820151816002015560608201518160030160006101000a8154816001600160a01b0302191690836001600160a01b0316021790555060808201518160040160006101000a8154816001600160a01b0302191690836001600160a01b0316021790555060a0820151816005015560c08201518160060160006101000a81548160ff0219169083151502179055505050846001600160a01b03166323b872dd3330876040518463ffffffff1660e01b8152600401610632939291906109d5565b600060405180830381600087803b15801561064c57600080fd5b505af1158015610660573d6000803e3d6000fd5b5050505083856001600160a01b0316837f045dfa01dcba2b36aba1d3dc4a874f4b0c5d2fbeb8d2c4b34a7d88c8d8f929d13360008860006040516106a794939291906109f9565b60405180910390a450506001600055505050565b6003546001600160a01b031681565b600481815481106106da57600080fd5b600091825260209091206007909102018054600182015460028301546003840154600485015460058601546006909601549496506001600160a01b039384169592949184169316919060ff1687565b6002600054141561074c5760405162461bcd60e51b81526004016102cb90610b4b565b60026000818155828152600560208190526040909120908101549181015460069091015460ff163483146107925760405162461bcd60e51b81526004016102cb90610ab6565b600181151514156107b55760405162461bcd60e51b81526004016102cb90610b14565b837f2073b2706c235effb1e3840575370a51749afd8181b4018f93bff955d50792cb336040516107e591906109c1565b60405180910390a26000848152600560205260408082206003015490516001600160a01b03909116913480156108fc02929091818181858888f19350505050158015610835573d6000803e3d6000fd5b506040516323b872dd60e01b81526001600160a01b038616906323b872dd90610866903090339087906004016109d5565b600060405180830381600087803b15801561088057600080fd5b505af1158015610894573d6000803e3d6000fd5b505050600085815260056020526040902060040180546001600160a01b03191633179055506108c360026108f2565b5050506000908152600560205260408120600601805460ff19166001908117909155905550565b80545b919050565b80546001019055565b6040805160e081018252600080825260208201819052918101829052606081018290526080810182905260a0810182905260c081019190915290565b80356001600160a01b03811681146108ed57600080fd5b60008060408385031215610960578182fd5b61096983610937565b946020939093013593505050565b60008060006060848603121561098b578081fd5b61099484610937565b95602085013595506040909401359392505050565b6000602082840312156109ba578081fd5b5035919050565b6001600160a01b0391909116815260200190565b6001600160a01b039384168152919092166020820152604081019190915260600190565b6001600160a01b0394851681529290931660208301526040820152901515606082015260800190565b602080825282518282018190526000919060409081850190868401855b82811015610aa957815180518552868101516001600160a01b039081168887015286820151878701526060808301518216908701526080808301519091169086015260a0808201519086015260c09081015115159085015260e09093019290850190600101610a3f565b5091979650505050505050565b602080825260409082018190527f506c65617365207375626d6974207468652061736b696e672070726963652069908201527f6e206f7264657220746f20636f6d706c65746520746865207075726368617365606082015260800190565b6020808252601e908201527f546869732053616c652068617320616c726564792066696e6e69736865640000604082015260600190565b6020808252601f908201527f5265656e7472616e637947756172643a207265656e7472616e742063616c6c00604082015260600190565b6020808252601c908201527f5072696365206d7573742062652067726561746572207468616e203000000000604082015260600190565b9687526001600160a01b03958616602088015260408701949094529184166060860152909216608084015260a0830191909152151560c082015260e00190565b60008219821115610c0c57610c0c610c43565b500190565b600082821015610c2357610c23610c43565b500390565b6000600019821415610c3c57610c3c610c43565b5060010190565b634e487b7160e01b600052601160045260246000fdfea264697066735822122002e3e1703b310e49a0d5d10b06af20d3f1af288b0afba67ced9029482d5c660564736f6c63430008000033",
  "immutableReferences": {},
  "source": "// SPDX-License-Identifier: MIT\npragma solidity ^0.8.0;\n\nimport \"@openzeppelin/contracts/utils/Counters.sol\";\nimport \"@openzeppelin/contracts/token/ERC721/ERC721.sol\";\nimport \"@openzeppelin/contracts/security/ReentrancyGuard.sol\";\n\ncontract Market is ReentrancyGuard {\n    using Counters for Counters.Counter;\n    Counters.Counter private _itemIds;\n    Counters.Counter private _itemsSold;\n\n    address public owner;\n\n    constructor() {\n        owner = msg.sender;\n    }\n\n    struct MarketItem {\n        uint256 itemId;\n        address nftContract;\n        uint256 tokenId;\n        address payable seller;\n        address payable owner;\n        uint256 price;\n        bool sold;\n    }\n\n    MarketItem[] public markets;\n    mapping(uint256 => MarketItem) private idToMarketItem;\n\n    event MarketItemCreated(\n        uint256 indexed itemId,\n        address indexed nftContract,\n        uint256 indexed tokenId,\n        address seller,\n        address owner,\n        uint256 price,\n        bool sold\n    );\n\n    event MarketItemSold(uint256 indexed itemId, address owner);\n\n    function createMarketItem(\n        address nftContract,\n        uint256 tokenId,\n        uint256 price\n    ) public payable nonReentrant {\n        require(price > 0, \"Price must be greater than 0\");\n\n        _itemIds.increment();\n        uint256 itemId = _itemIds.current();\n\n        MarketItem memory newItemMarket = idToMarketItem[itemId] = MarketItem(\n            itemId,\n            nftContract,\n            tokenId,\n            payable(msg.sender),\n            payable(address(0)),\n            price,\n            false\n        );\n        markets.push(newItemMarket);\n        IERC721(nftContract).transferFrom(msg.sender, address(this), tokenId);\n\n        emit MarketItemCreated(\n            itemId,\n            nftContract,\n            tokenId,\n            msg.sender,\n            address(0),\n            price,\n            false\n        );\n    }\n\n    function createMarketSale(address nftContract, uint256 itemId)\n        public\n        payable\n        nonReentrant\n    {\n        uint256 price = idToMarketItem[itemId].price;\n        uint256 tokenId = idToMarketItem[itemId].tokenId;\n        bool sold = idToMarketItem[itemId].sold;\n        require(\n            msg.value == price,\n            \"Please submit the asking price in order to complete the purchase\"\n        );\n        require(sold != true, \"This Sale has alredy finnished\");\n        emit MarketItemSold(itemId, msg.sender);\n\n        idToMarketItem[itemId].seller.transfer(msg.value);\n        IERC721(nftContract).transferFrom(address(this), msg.sender, tokenId);\n        idToMarketItem[itemId].owner = payable(msg.sender);\n        _itemsSold.increment();\n        idToMarketItem[itemId].sold = true;\n    }\n\n    function fetchMarketItems() public view returns (MarketItem[] memory) {\n        uint256 itemCount = _itemIds.current();\n        uint256 unsoldItemCount = _itemIds.current() - _itemsSold.current();\n        uint256 currentIndex = 0;\n\n        MarketItem[] memory items = new MarketItem[](unsoldItemCount);\n        for (uint256 i = 0; i < itemCount; i++) {\n            if (idToMarketItem[i + 1].owner == address(0)) {\n                uint256 currentId = i + 1;\n                MarketItem storage currentItem = idToMarketItem[currentId];\n                items[currentIndex] = currentItem;\n                currentIndex += 1;\n            }\n        }\n        return items;\n    }\n}\n",
  "sourcePath": "/Volumes/MACLIFE - Data/coin/nft_game/contracts/Market.sol",
  "compiler": {
    "name": "solc",
    "version": "0.8.0+commit.c7dfd78e.Emscripten.clang"
  },
  "schemaVersion": "3.4.4",
  "updatedAt": "2022-01-22T08:12:03.520Z",
  "networkType": "ethereum",
  "devdoc": {
    "kind": "dev",
    "methods": {},
    "version": 1
  },
  "userdoc": {
    "kind": "user",
    "methods": {},
    "version": 1
  }
}