{
  "contractName": "NFT",
  "abi": [
    {
      "inputs": [
        {
          "internalType": "address",
          "name": "marketplaceAddress",
          "type": "address"
        }
      ],
      "stateMutability": "nonpayable",
      "type": "constructor"
    },
    {
      "anonymous": false,
      "inputs": [
        {
          "indexed": true,
          "internalType": "address",
          "name": "owner",
          "type": "address"
        },
        {
          "indexed": true,
          "internalType": "address",
          "name": "approved",
          "type": "address"
        },
        {
          "indexed": true,
          "internalType": "uint256",
          "name": "tokenId",
          "type": "uint256"
        }
      ],
      "name": "Approval",
      "type": "event"
    },
    {
      "anonymous": false,
      "inputs": [
        {
          "indexed": true,
          "internalType": "address",
          "name": "owner",
          "type": "address"
        },
        {
          "indexed": true,
          "internalType": "address",
          "name": "operator",
          "type": "address"
        },
        {
          "indexed": false,
          "internalType": "bool",
          "name": "approved",
          "type": "bool"
        }
      ],
      "name": "ApprovalForAll",
      "type": "event"
    },
    {
      "anonymous": false,
      "inputs": [
        {
          "indexed": true,
          "internalType": "address",
          "name": "from",
          "type": "address"
        },
        {
          "indexed": true,
          "internalType": "address",
          "name": "to",
          "type": "address"
        },
        {
          "indexed": true,
          "internalType": "uint256",
          "name": "tokenId",
          "type": "uint256"
        }
      ],
      "name": "Transfer",
      "type": "event"
    },
    {
      "inputs": [
        {
          "internalType": "address",
          "name": "to",
          "type": "address"
        },
        {
          "internalType": "uint256",
          "name": "tokenId",
          "type": "uint256"
        }
      ],
      "name": "approve",
      "outputs": [],
      "stateMutability": "nonpayable",
      "type": "function"
    },
    {
      "inputs": [
        {
          "internalType": "address",
          "name": "owner",
          "type": "address"
        }
      ],
      "name": "balanceOf",
      "outputs": [
        {
          "internalType": "uint256",
          "name": "",
          "type": "uint256"
        }
      ],
      "stateMutability": "view",
      "type": "function",
      "constant": true
    },
    {
      "inputs": [
        {
          "internalType": "uint256",
          "name": "tokenId",
          "type": "uint256"
        }
      ],
      "name": "getApproved",
      "outputs": [
        {
          "internalType": "address",
          "name": "",
          "type": "address"
        }
      ],
      "stateMutability": "view",
      "type": "function",
      "constant": true
    },
    {
      "inputs": [
        {
          "internalType": "address",
          "name": "owner",
          "type": "address"
        },
        {
          "internalType": "address",
          "name": "operator",
          "type": "address"
        }
      ],
      "name": "isApprovedForAll",
      "outputs": [
        {
          "internalType": "bool",
          "name": "",
          "type": "bool"
        }
      ],
      "stateMutability": "view",
      "type": "function",
      "constant": true
    },
    {
      "inputs": [],
      "name": "name",
      "outputs": [
        {
          "internalType": "string",
          "name": "",
          "type": "string"
        }
      ],
      "stateMutability": "view",
      "type": "function",
      "constant": true
    },
    {
      "inputs": [
        {
          "internalType": "uint256",
          "name": "tokenId",
          "type": "uint256"
        }
      ],
      "name": "ownerOf",
      "outputs": [
        {
          "internalType": "address",
          "name": "",
          "type": "address"
        }
      ],
      "stateMutability": "view",
      "type": "function",
      "constant": true
    },
    {
      "inputs": [
        {
          "internalType": "address",
          "name": "from",
          "type": "address"
        },
        {
          "internalType": "address",
          "name": "to",
          "type": "address"
        },
        {
          "internalType": "uint256",
          "name": "tokenId",
          "type": "uint256"
        }
      ],
      "name": "safeTransferFrom",
      "outputs": [],
      "stateMutability": "nonpayable",
      "type": "function"
    },
    {
      "inputs": [
        {
          "internalType": "address",
          "name": "from",
          "type": "address"
        },
        {
          "internalType": "address",
          "name": "to",
          "type": "address"
        },
        {
          "internalType": "uint256",
          "name": "tokenId",
          "type": "uint256"
        },
        {
          "internalType": "bytes",
          "name": "_data",
          "type": "bytes"
        }
      ],
      "name": "safeTransferFrom",
      "outputs": [],
      "stateMutability": "nonpayable",
      "type": "function"
    },
    {
      "inputs": [
        {
          "internalType": "address",
          "name": "operator",
          "type": "address"
        },
        {
          "internalType": "bool",
          "name": "approved",
          "type": "bool"
        }
      ],
      "name": "setApprovalForAll",
      "outputs": [],
      "stateMutability": "nonpayable",
      "type": "function"
    },
    {
      "inputs": [
        {
          "internalType": "bytes4",
          "name": "interfaceId",
          "type": "bytes4"
        }
      ],
      "name": "supportsInterface",
      "outputs": [
        {
          "internalType": "bool",
          "name": "",
          "type": "bool"
        }
      ],
      "stateMutability": "view",
      "type": "function",
      "constant": true
    },
    {
      "inputs": [],
      "name": "symbol",
      "outputs": [
        {
          "internalType": "string",
          "name": "",
          "type": "string"
        }
      ],
      "stateMutability": "view",
      "type": "function",
      "constant": true
    },
    {
      "inputs": [
        {
          "internalType": "uint256",
          "name": "tokenId",
          "type": "uint256"
        }
      ],
      "name": "tokenURI",
      "outputs": [
        {
          "internalType": "string",
          "name": "",
          "type": "string"
        }
      ],
      "stateMutability": "view",
      "type": "function",
      "constant": true
    },
    {
      "inputs": [
        {
          "internalType": "address",
          "name": "from",
          "type": "address"
        },
        {
          "internalType": "address",
          "name": "to",
          "type": "address"
        },
        {
          "internalType": "uint256",
          "name": "tokenId",
          "type": "uint256"
        }
      ],
      "name": "transferFrom",
      "outputs": [],
      "stateMutability": "nonpayable",
      "type": "function"
    },
    {
      "inputs": [
        {
          "internalType": "string",
          "name": "tokenURI",
          "type": "string"
        }
      ],
      "name": "createToken",
      "outputs": [
        {
          "internalType": "uint256",
          "name": "",
          "type": "uint256"
        }
      ],
      "stateMutability": "nonpayable",
      "type": "function"
    }
  ],
  "bytecode": "0x60806040523480156200001157600080fd5b506040516200199138038062001991833981016040819052620000349162000167565b60408051808201825260098152684d657461766572736560b81b6020808301918252835180850190945260048452631351551560e21b9084015281519192916200008191600091620000c1565b50805162000097906001906020840190620000c1565b5050600880546001600160a01b0319166001600160a01b03939093169290921790915550620001d4565b828054620000cf9062000197565b90600052602060002090601f016020900481019282620000f357600085556200013e565b82601f106200010e57805160ff19168380011785556200013e565b828001600101855582156200013e579182015b828111156200013e57825182559160200191906001019062000121565b506200014c92915062000150565b5090565b5b808211156200014c576000815560010162000151565b60006020828403121562000179578081fd5b81516001600160a01b038116811462000190578182fd5b9392505050565b600281046001821680620001ac57607f821691505b60208210811415620001ce57634e487b7160e01b600052602260045260246000fd5b50919050565b6117ad80620001e46000396000f3fe608060405234801561001057600080fd5b50600436106100ea5760003560e01c80636352211e1161008c578063a22cb46511610066578063a22cb465146101d6578063b88d4fde146101e9578063c87b56dd146101fc578063e985e9c51461020f576100ea565b80636352211e146101a857806370a08231146101bb57806395d89b41146101ce576100ea565b8063095ea7b3116100c8578063095ea7b31461014d57806323b872dd1461016257806342842e0e1461017557806345576f9414610188576100ea565b806301ffc9a7146100ef57806306fdde0314610118578063081812fc1461012d575b600080fd5b6101026100fd366004611050565b610222565b60405161010f9190611192565b60405180910390f35b61012061026a565b60405161010f919061119d565b61014061013b3660046110ce565b6102fc565b60405161010f9190611141565b61016061015b366004611027565b610348565b005b610160610170366004610f39565b6103e0565b610160610183366004610f39565b610418565b61019b610196366004611088565b610433565b60405161010f919061163a565b6101406101b63660046110ce565b610478565b61019b6101c9366004610eed565b6104ad565b6101206104f1565b6101606101e4366004610fed565b610500565b6101606101f7366004610f74565b610516565b61012061020a3660046110ce565b610555565b61010261021d366004610f07565b610676565b60006001600160e01b031982166380ac58cd60e01b148061025357506001600160e01b03198216635b5e139f60e01b145b806102625750610262826106a4565b90505b919050565b606060008054610279906116b2565b80601f01602080910402602001604051908101604052809291908181526020018280546102a5906116b2565b80156102f25780601f106102c7576101008083540402835291602001916102f2565b820191906000526020600020905b8154815290600101906020018083116102d557829003601f168201915b5050505050905090565b6000610307826106bd565b61032c5760405162461bcd60e51b8152600401610323906114c4565b60405180910390fd5b506000908152600460205260409020546001600160a01b031690565b600061035382610478565b9050806001600160a01b0316836001600160a01b031614156103875760405162461bcd60e51b8152600401610323906115a8565b806001600160a01b03166103996106da565b6001600160a01b031614806103b557506103b58161021d6106da565b6103d15760405162461bcd60e51b815260040161032390611300565b6103db83836106de565b505050565b6103f16103eb6106da565b8261074c565b61040d5760405162461bcd60e51b8152600401610323906115e9565b6103db8383836107c9565b6103db83838360405180602001604052806000815250610516565b600061043f60076108f6565b600061044b60076108ff565b90506104573382610903565b61046181846109e2565b600854610262906001600160a01b03166001610500565b6000818152600260205260408120546001600160a01b0316806102625760405162461bcd60e51b8152600401610323906113a7565b60006001600160a01b0382166104d55760405162461bcd60e51b81526004016103239061135d565b506001600160a01b031660009081526003602052604090205490565b606060018054610279906116b2565b61051261050b6106da565b8383610a26565b5050565b6105276105216106da565b8361074c565b6105435760405162461bcd60e51b8152600401610323906115e9565b61054f84848484610ac9565b50505050565b6060610560826106bd565b61057c5760405162461bcd60e51b815260040161032390611473565b60008281526006602052604081208054610595906116b2565b80601f01602080910402602001604051908101604052809291908181526020018280546105c1906116b2565b801561060e5780601f106105e35761010080835404028352916020019161060e565b820191906000526020600020905b8154815290600101906020018083116105f157829003601f168201915b50505050509050600061061f610afc565b905080516000141561063357509050610265565b81511561066557808260405160200161064d929190611112565b60405160208183030381529060405292505050610265565b61066e84610b0e565b949350505050565b6001600160a01b03918216600090815260056020908152604080832093909416825291909152205460ff1690565b6001600160e01b031981166301ffc9a760e01b14919050565b6000908152600260205260409020546001600160a01b0316151590565b3390565b600081815260046020526040902080546001600160a01b0319166001600160a01b038416908117909155819061071382610478565b6001600160a01b03167f8c5be1e5ebec7d5bd14f71427d1e84f3dd0314c0f7b2291e5b200ac8c7c3b92560405160405180910390a45050565b6000610757826106bd565b6107735760405162461bcd60e51b8152600401610323906112b4565b600061077e83610478565b9050806001600160a01b0316846001600160a01b031614806107b95750836001600160a01b03166107ae846102fc565b6001600160a01b0316145b8061066e575061066e8185610676565b826001600160a01b03166107dc82610478565b6001600160a01b0316146108025760405162461bcd60e51b815260040161032390611510565b6001600160a01b0382166108285760405162461bcd60e51b815260040161032390611239565b6108338383836103db565b61083e6000826106de565b6001600160a01b038316600090815260036020526040812080546001929061086790849061166f565b90915550506001600160a01b0382166000908152600360205260408120805460019290610895908490611643565b909155505060008181526002602052604080822080546001600160a01b0319166001600160a01b0386811691821790925591518493918716917fddf252ad1be2c89b69c2b068fc378daa952ba7f163c4a11628f55a4df523b3ef91a4505050565b80546001019055565b5490565b6001600160a01b0382166109295760405162461bcd60e51b81526004016103239061143e565b610932816106bd565b1561094f5760405162461bcd60e51b815260040161032390611202565b61095b600083836103db565b6001600160a01b0382166000908152600360205260408120805460019290610984908490611643565b909155505060008181526002602052604080822080546001600160a01b0319166001600160a01b03861690811790915590518392907fddf252ad1be2c89b69c2b068fc378daa952ba7f163c4a11628f55a4df523b3ef908290a45050565b6109eb826106bd565b610a075760405162461bcd60e51b8152600401610323906113f0565b600082815260066020908152604090912082516103db92840190610dcd565b816001600160a01b0316836001600160a01b03161415610a585760405162461bcd60e51b81526004016103239061127d565b6001600160a01b0383811660008181526005602090815260408083209487168084529490915290819020805460ff1916851515179055517f17307eab39ab6107e8899845ad3d59bd9653f200f220920489ca2b5937696c3190610abc908590611192565b60405180910390a3505050565b610ad48484846107c9565b610ae084848484610b91565b61054f5760405162461bcd60e51b8152600401610323906111b0565b60408051602081019091526000815290565b6060610b19826106bd565b610b355760405162461bcd60e51b815260040161032390611559565b6000610b3f610afc565b90506000815111610b5f5760405180602001604052806000815250610b8a565b80610b6984610cac565b604051602001610b7a929190611112565b6040516020818303038152906040525b9392505050565b6000610ba5846001600160a01b0316610dc7565b15610ca157836001600160a01b031663150b7a02610bc16106da565b8786866040518563ffffffff1660e01b8152600401610be39493929190611155565b602060405180830381600087803b158015610bfd57600080fd5b505af1925050508015610c2d575060408051601f3d908101601f19168201909252610c2a9181019061106c565b60015b610c87573d808015610c5b576040519150601f19603f3d011682016040523d82523d6000602084013e610c60565b606091505b508051610c7f5760405162461bcd60e51b8152600401610323906111b0565b805181602001fd5b6001600160e01b031916630a85bd0160e11b14905061066e565b506001949350505050565b606081610cd157506040805180820190915260018152600360fc1b6020820152610265565b8160005b8115610cfb5780610ce5816116ed565b9150610cf49050600a8361165b565b9150610cd5565b60008167ffffffffffffffff811115610d2457634e487b7160e01b600052604160045260246000fd5b6040519080825280601f01601f191660200182016040528015610d4e576020820181803683370190505b5090505b841561066e57610d6360018361166f565b9150610d70600a86611708565b610d7b906030611643565b60f81b818381518110610d9e57634e487b7160e01b600052603260045260246000fd5b60200101906001600160f81b031916908160001a905350610dc0600a8661165b565b9450610d52565b3b151590565b828054610dd9906116b2565b90600052602060002090601f016020900481019282610dfb5760008555610e41565b82601f10610e1457805160ff1916838001178555610e41565b82800160010185558215610e41579182015b82811115610e41578251825591602001919060010190610e26565b50610e4d929150610e51565b5090565b5b80821115610e4d5760008155600101610e52565b600067ffffffffffffffff80841115610e8157610e81611748565b604051601f8501601f191681016020018281118282101715610ea557610ea5611748565b604052848152915081838501861015610ebd57600080fd5b8484602083013760006020868301015250509392505050565b80356001600160a01b038116811461026557600080fd5b600060208284031215610efe578081fd5b610b8a82610ed6565b60008060408385031215610f19578081fd5b610f2283610ed6565b9150610f3060208401610ed6565b90509250929050565b600080600060608486031215610f4d578081fd5b610f5684610ed6565b9250610f6460208501610ed6565b9150604084013590509250925092565b60008060008060808587031215610f89578081fd5b610f9285610ed6565b9350610fa060208601610ed6565b925060408501359150606085013567ffffffffffffffff811115610fc2578182fd5b8501601f81018713610fd2578182fd5b610fe187823560208401610e66565b91505092959194509250565b60008060408385031215610fff578182fd5b61100883610ed6565b91506020830135801515811461101c578182fd5b809150509250929050565b60008060408385031215611039578182fd5b61104283610ed6565b946020939093013593505050565b600060208284031215611061578081fd5b8135610b8a8161175e565b60006020828403121561107d578081fd5b8151610b8a8161175e565b600060208284031215611099578081fd5b813567ffffffffffffffff8111156110af578182fd5b8201601f810184136110bf578182fd5b61066e84823560208401610e66565b6000602082840312156110df578081fd5b5035919050565b600081518084526110fe816020860160208601611686565b601f01601f19169290920160200192915050565b60008351611124818460208801611686565b835190830190611138818360208801611686565b01949350505050565b6001600160a01b0391909116815260200190565b6001600160a01b0385811682528416602082015260408101839052608060608201819052600090611188908301846110e6565b9695505050505050565b901515815260200190565b600060208252610b8a60208301846110e6565b60208082526032908201527f4552433732313a207472616e7366657220746f206e6f6e20455243373231526560408201527131b2b4bb32b91034b6b83632b6b2b73a32b960711b606082015260800190565b6020808252601c908201527f4552433732313a20746f6b656e20616c7265616479206d696e74656400000000604082015260600190565b60208082526024908201527f4552433732313a207472616e7366657220746f20746865207a65726f206164646040820152637265737360e01b606082015260800190565b60208082526019908201527f4552433732313a20617070726f766520746f2063616c6c657200000000000000604082015260600190565b6020808252602c908201527f4552433732313a206f70657261746f7220717565727920666f72206e6f6e657860408201526b34b9ba32b73a103a37b5b2b760a11b606082015260800190565b60208082526038908201527f4552433732313a20617070726f76652063616c6c6572206973206e6f74206f7760408201527f6e6572206e6f7220617070726f76656420666f7220616c6c0000000000000000606082015260800190565b6020808252602a908201527f4552433732313a2062616c616e636520717565727920666f7220746865207a65604082015269726f206164647265737360b01b606082015260800190565b60208082526029908201527f4552433732313a206f776e657220717565727920666f72206e6f6e657869737460408201526832b73a103a37b5b2b760b91b606082015260800190565b6020808252602e908201527f45524337323155524953746f726167653a2055524920736574206f66206e6f6e60408201526d32bc34b9ba32b73a103a37b5b2b760911b606082015260800190565b6020808252818101527f4552433732313a206d696e7420746f20746865207a65726f2061646472657373604082015260600190565b60208082526031908201527f45524337323155524953746f726167653a2055524920717565727920666f72206040820152703737b732bc34b9ba32b73a103a37b5b2b760791b606082015260800190565b6020808252602c908201527f4552433732313a20617070726f76656420717565727920666f72206e6f6e657860408201526b34b9ba32b73a103a37b5b2b760a11b606082015260800190565b60208082526029908201527f4552433732313a207472616e73666572206f6620746f6b656e2074686174206960408201526839903737ba1037bbb760b91b606082015260800190565b6020808252602f908201527f4552433732314d657461646174613a2055524920717565727920666f72206e6f60408201526e3732bc34b9ba32b73a103a37b5b2b760891b606082015260800190565b60208082526021908201527f4552433732313a20617070726f76616c20746f2063757272656e74206f776e656040820152603960f91b606082015260800190565b60208082526031908201527f4552433732313a207472616e736665722063616c6c6572206973206e6f74206f6040820152701ddb995c881b9bdc88185c1c1c9bdd9959607a1b606082015260800190565b90815260200190565b600082198211156116565761165661171c565b500190565b60008261166a5761166a611732565b500490565b6000828210156116815761168161171c565b500390565b60005b838110156116a1578181015183820152602001611689565b8381111561054f5750506000910152565b6002810460018216806116c657607f821691505b602082108114156116e757634e487b7160e01b600052602260045260246000fd5b50919050565b60006000198214156117015761170161171c565b5060010190565b60008261171757611717611732565b500690565b634e487b7160e01b600052601160045260246000fd5b634e487b7160e01b600052601260045260246000fd5b634e487b7160e01b600052604160045260246000fd5b6001600160e01b03198116811461177457600080fd5b5056fea26469706673582212205de67f4bb36fe4aa7fa6f73e796993d7acc288f57f57e84294016e53a25d668064736f6c63430008000033",
  "immutableReferences": {},
  "source": "// SPDX-License-Identifier: MIT OR Apache-2.0\npragma solidity ^0.8.0;\n\nimport \"@openzeppelin/contracts/utils/Counters.sol\";\nimport \"@openzeppelin/contracts/token/ERC721/extensions/ERC721URIStorage.sol\";\nimport \"@openzeppelin/contracts/token/ERC721/ERC721.sol\";\n\ncontract NFT is ERC721URIStorage {\n    using Counters for Counters.Counter;\n    Counters.Counter private _tokenIds;\n    address contractAddress;\n\n    constructor(address marketplaceAddress) ERC721(\"Metaverse\", \"METT\") {\n        contractAddress = marketplaceAddress;\n    }\n\n    function createToken(string memory tokenURI) public returns (uint) {\n        _tokenIds.increment();\n        uint256 newItemId = _tokenIds.current();\n\n        _mint(msg.sender, newItemId);\n        _setTokenURI(newItemId, tokenURI);\n        setApprovalForAll(contractAddress, true);\n        return newItemId;\n    }\n}",
  "sourcePath": "/Volumes/MACLIFE - Data/coin/nft_game/contracts/NFT.sol",
  "compiler": {
    "name": "solc",
    "version": "0.8.0+commit.c7dfd78e.Emscripten.clang"
  },
  "schemaVersion": "3.4.4",
  "updatedAt": "2022-01-22T08:12:03.546Z",
  "networkType": "ethereum",
  "devdoc": {
    "kind": "dev",
    "methods": {
      "approve(address,uint256)": {
        "details": "See {IERC721-approve}."
      },
      "balanceOf(address)": {
        "details": "See {IERC721-balanceOf}."
      },
      "getApproved(uint256)": {
        "details": "See {IERC721-getApproved}."
      },
      "isApprovedForAll(address,address)": {
        "details": "See {IERC721-isApprovedForAll}."
      },
      "name()": {
        "details": "See {IERC721Metadata-name}."
      },
      "ownerOf(uint256)": {
        "details": "See {IERC721-ownerOf}."
      },
      "safeTransferFrom(address,address,uint256)": {
        "details": "See {IERC721-safeTransferFrom}."
      },
      "safeTransferFrom(address,address,uint256,bytes)": {
        "details": "See {IERC721-safeTransferFrom}."
      },
      "setApprovalForAll(address,bool)": {
        "details": "See {IERC721-setApprovalForAll}."
      },
      "supportsInterface(bytes4)": {
        "details": "See {IERC165-supportsInterface}."
      },
      "symbol()": {
        "details": "See {IERC721Metadata-symbol}."
      },
      "tokenURI(uint256)": {
        "details": "See {IERC721Metadata-tokenURI}."
      },
      "transferFrom(address,address,uint256)": {
        "details": "See {IERC721-transferFrom}."
      }
    },
    "version": 1
  },
  "userdoc": {
    "kind": "user",
    "methods": {},
    "version": 1
  }
}